:020000040000FA
:04000000D9EF35F00F
:106AAE00016E01C083FF120039306D6C00000000D2
:106ABE003135306D6C000000E803960014000F00B5
:106ACE0005000FC001F010C002F0BEEC35F0015011
:106ADE000F24056E02501020066E11C007F012C072
:106AEE0008F02CEC36F01200076E8482075057EC3B
:106AFE0035F08494000E026E030E016E5AEC36F0E1
:106B0E008492000E026E030E016E5AEC36F08482F1
:106B1E001200076E8482075057EC35F08484000E05
:106B2E00026E030E016E5AEC36F08492000E026E67
:106B3E00030E016E5AEC36F0848212004558505204
:106B4E004553534F0000414D45524943414E4F006E
:106B5E00434150554343494E4F004C415454450018
:106B6E00000000000000000000000000000001C056
:106B7E0003F002C004F0C6EF35F0014A022A01C04C
:106B8E00D9FF02C0DAFFDF50D8A4D0EF35F0D2EF34
:106B9E0035F0C4EF35F00350015C016E045002581D
:106BAE00026E12004A0EF66E6B0EF76E000EF86E47
:106BBE0001EE00F010EE32F00900F5CFEEFFE550D9
:106BCE00E150FAE1B60EF66E6A0EF76E000EF86E32
:106BDE0000EE36F010EE1AF00900F5CFEEFFE5509C
:106BEE00E150FAE1000EF86E0001BCEF3BF084922A
:106BFE008494000E026E140E016E5AEC36F08482EE
:106C0E00380E7BEC35F0000E026E050E016E5AEC5E
:106C1E0036F0380E7BEC35F0000E026E010E016E72
:106C2E005AEC36F0380E7BEC35F0080E7BEC35F076
:106C3E000F0E7BEC35F0010E7BEC35F0380E7BEC55
:106C4E0035F0800E7BEC35F0120007C00BF008C05B
:106C5E000CF005C00DF006C00EF00B50096E0C5076
:106C6E000A6E0B4A0C2A09C0F6FF0AC0F7FFF86A33
:106C7E000DC0D9FF0EC0DAFF0D4A0E2A050EF764BD
:106C8E0003D00800F55005D0F6CFE9FFF7CFEAFFA5
:106C9E00EF50DF6EDF50D8A457EF36F059EF36F0D5
:106CAE0034EF36F01200000E046E000E036E80EF0D
:106CBE0036F0000E056E280E056468EF36F06AEFAA
:106CCE0036F06CEF36F07EEF36F0000E066E020EEA
:106CDE00066474EF36F076EF36F078EF36F07BEF31
:106CEE0036F0062A6EEF36F0052A62EF36F0034ACA
:106CFE00042A0150035C02500458D8A089EF36F0E4
:106D0E008BEF36F060EF36F01200000E0C6EA9EF2E
:106D1E0036F00C5008240A6E000E09200B6E0AC0C5
:106D2E00F6FF0BC0F7FFF86A050EF76403D00800F4
:106D3E00F55005D0F6CFE9FFF7CFEAFFEF5090EC14
:106D4E0035F00C2A0C5008240A6E000E09200B6E2A
:106D5E000AC0F6FF0BC0F7FFF86A050EF76403D002
:106D6E000800F55005D0F6CFE9FFF7CFEAFFEF5058
:106D7E000009D8A4C5EF36F0C7EF36F090EF36F025
:106D8E001200000E0E6E0ABED1EF36F0CFEF36F0C7
:106D9E00D7EF36F0096C0A1ED8B00A2A010E0E6E15
:106DAE000CBEDEEF36F0DCEF36F0E2EF36F00B6CB9
:106DBE000C1ED8B00C2A0B500C10D8B4E9EF36F0DC
:106DCE00EBEF36F00FEF37F0010E0D6EF3EF36F0FE
:106DDE00D8900B360C360D2A0CAEF8EF36F0FAEFD3
:106DEE0036F0EFEF36F00B50095C0C500A58D8A075
:106DFE0003EF37F005EF37F009EF37F00B50095E70
:106E0E000C500A5AD8900C320B320D2EFAEF36F087
:106E1E000E50D8B415EF37F017EF37F01BEF37F0F1
:106E2E00096C0A1ED8B00A2A09C009F00AC00AF075
:106E3E001200000E066E04BE29EF37F027EF37F072
:106E4E002FEF37F0036C041ED8B0042A010E066E25
:106E5E0002BE36EF37F034EF37F03CEF37F0016C0F
:106E6E00021ED8B0022A010E061A000E086E000E7F
:106E7E00076E03500410D8B447EF37F049EF37F0E0
:106E8E0071EF37F0010E056E51EF37F0D8900336E3
:106E9E000436052A04AE56EF37F058EF37F04DEFB3
:106EAE0037F0D890073608360350015C045002586C
:106EBE00D8A064EF37F066EF37F06BEF37F0035082
:106ECE00015E0450025A0780D89004320332052E18
:106EDE0058EF37F00650D8B477EF37F079EF37F038
:106EEE007DEF37F0076C081ED8B0082A07C001F0F6
:106EFE0008C002F012000E6E330E0E18D8B48AEFD0
:106F0E0037F08CEF37F0A1EF37F0010E7BEC35F058
:106F1E00800E7BEC35F0D40E086E7F0E096E8CEC75
:106F2E0036F0C00E7BEC35F0900E086E7F0E096EBB
:106F3E008CEC36F00F0E956E000E086E000E076E7E
:106F4E00C6EC39F0300F0F6E000E956E310E0E1826
:106F5E00D8A4B4EF37F0B6EF37F0DCEF37F0310EE0
:106F6E000F18D8B4BDEF37F0BFEF37F0EEEF37F0B4
:106F7E00320E0F18D8B4C6EF37F0C8EF37F0EEEF79
:106F8E0037F0330E0F18D8B4CFEF37F0D1EF37F00C
:106F9E00EEEF37F0340E0F18D8A4D8EF37F0DAEF43
:106FAE0037F0DCEF37F0EEEF37F0310E0F18D8B4C4
:106FBE00E3EF37F0E5EF37F0EEEF37F0320E0F1864
:106FCE00D8A4ECEF37F0EEEF37F0A1EF37F00F501B
:106FDE001200010E7BEC35F0800E7BEC35F00DC00F
:106FEE0008F00EC009F08CEC36F0C00E7BEC35F0DC
:106FFE000FC008F010C009F08CEC36F0030E026ED4
:10700E00E80E016E5AEC36F0000E126E000E116E86
:10701E00000E026E960E016E5AEC36F0180E7BECD8
:10702E0035F0114A122A12BE26EF38F0125009E13D
:10703E000E0E115CD8A026EF38F028EF38F00FEFC7
:10704E0038F0000E126E000E116E000E026E960ECD
:10705E00016E5AEC36F01C0E7BEC35F0114A122AFA
:10706E0012BE43EF38F0125009E1160E115CD8A093
:10707E0043EF38F045EF38F02CEF38F0000E126E7B
:10708E00000E116E000E026E960E016E5AEC36F068
:10709E00180E7BEC35F0114A122A12BE60EF38F052
:1070AE00125009E10F0E115CD8A060EF38F062EFBC
:1070BE0038F049EF38F0030E026EE80E016E5AEC0E
:1070CE0036F012002A342B34316E3150D8A472EFC0
:1070DE0038F074EF38F07EEF38F0000E286E000EA8
:1070EE00296E000E2A6E000E2B6EEBEF38F028C0C4
:1070FE002CF029C02DF02AC02EF02BC02FF0200E20
:10710E008EEF38F0D8902F322E322D322C32E82ED0
:10711E0089EF38F02C50306E2A8EFF0E2816FF0E97
:10712E002916FF0E2A16000E2B16960E315E31BE54
:10713E00A5EF38F0A3EF38F0BBEF38F03150800AEE
:10714E00970FD8B0ADEF38F0AFEF38F0B1EF38F0B1
:10715E0074EF38F0D8902B322A3229322832313E51
:10716E00B1EF38F0D3EF38F01F0E3164C1EF38F0C5
:10717E00C3EF38F0CBEF38F074EF38F0D8902836F4
:10718E0029362A362B3631063150D8A4D1EF38F0B5
:10719E00D3EF38F0C5EF38F03050D8B4D9EF38F01F
:1071AE00DBEF38F0E3EF38F02B1E2A1E291E286C79
:1071BE00000E29222A222B2228C028F029C029F0CD
:1071CE002AC02AF02BC02BF01200096E0950D8B439
:1071DE00F3EF38F0F5EF38F017EF39F004BEFCEFAF
:1071EE0038F0FAEF38F017EF39F001C005F002C0B1
:1071FE0006F003C007F004C008F0051E061E071EA9
:10720E00081E052A000E06220722082205C00BF0D2
:10721E0006C00CF007C00DF008C00EF01FEF39F0DD
:10722E0001C00BF002C00CF003C00DF004C00EF054
:10723E000150021003100410D8A428EF39F02AEFE1
:10724E0039F034EF39F0000E016E000E026E000EB2
:10725E00036E000E046EC5EF39F0960E0A6E3EEF09
:10726E0039F00A2AD8900E320D320C320B32000E43
:10727E000B14056E000E0C14066E000E0D14076E28
:10728E00FE0E0E14086E0550061007100810D8A436
:10729E0053EF39F055EF39F038EF39F063EF39F03D
:1072AE000A2A010E0B26000E0C220D220E22D89059
:1072BE000E320D320C320B32000E0B14056E000E18
:1072CE000C14066E000E0D14076EFF0E0E14086ED3
:1072DE000550061007100810D8A478EF39F07AEF91
:1072EE0039F057EF39F082EF39F00A06D8900B36A5
:1072FE000C360D360E360DBE87EF39F089EF39F0AC
:10730E0091EF39F0020E0A608FEF39F091EF39F0FC
:10731E007CEF39F00AB096EF39F098EF39F099EF2B
:10732E0039F00D9ED8900A320AC005F0066A076A37
:10733E00086A05C008F0076A066A056A05500B124E
:10734E0006500C1207500D1208500E120950D8B4E8
:10735E00B3EF39F0B5EF39F0BDEF39F004BEBCEF45
:10736E0039F0BAEF39F0BDEF39F00E8E0BC001F0E7
:10737E000CC002F00DC003F00EC004F01200000E9F
:10738E000A6E000E096E000E0C6E81CF0BF077EFB9
:10739E003AF0000E0D6EAD0E0D24F66EF76A7E0EEF
:1073AE00F7220800F550FF0A811283B6E1EF39F09B
:1073BE00E3EF39F0FBEF39F0000E026E0F0E016EA7
:1073CE005AEC36F083B6EEEF39F0F0EF39F0FBEF12
:1073DE0039F083A6F5EF39F0F7EF39F0F0EF39F029
:1073EE000D280C6E6DEF3AF083B400EF3AF002EF19
:1073FE003AF01BEF3AF0000E026E0F0E016E5AECD1
:10740E0036F083B40DEF3AF00FEF3AF01BEF3AF08F
:10741E0083A414EF3AF016EF3AF00FEF3AF00D5056
:10742E00040F0C6E6DEF3AF083B220EF3AF022EFBC
:10743E003AF03BEF3AF0000E026E0F0E016E5AEC70
:10744E0036F083B22DEF3AF02FEF3AF03BEF3AF0F1
:10745E0083A234EF3AF036EF3AF02FEF3AF00D50B8
:10746E00070F0C6E6DEF3AF083B040EF3AF042EF3B
:10747E003AF05BEF3AF0000E026E0F0E016E5AEC10
:10748E0036F083B04DEF3AF04FEF3AF05BEF3AF053
:10749E0083A054EF3AF056EF3AF04FEF3AF00D501A
:1074AE000A0F0C6E6DEF3AF0AD0E0D24F66EF76A04
:1074BE007E0EF7220800F55081160D2A020E0D647D
:1074CE006BEF3AF06DEF3AF0D2EF39F0000E026E3C
:1074DE00050E016E5AEC36F0050E0926000E0A2234
:1074EE000750095C08500A58D8A080EF3AF082EF96
:1074FE003AF08BEF3AF007500810D8A489EF3AF023
:10750E008BEF3AF093EF3AF00C50D8B491EF3AF08B
:10751E0093EF3AF0D0EF39F00C50D8A499EF3AF03F
:10752E009BEF3AF09CEF3AF00C680B0E0C18D8A4B7
:10753E00A3EF3AF0A5EF3AF0A7EF3AF0000E0C6E7B
:10754E000BC081FF0C501200F19E0E0EC16E000E8C
:10755E00956E000E926E000E936E000E816E000EF2
:10756E00136E030E156EE80E146EA50E1324F66E32
:10757E00F76A7E0EF7220800F5CF81FF132A080E58
:10758E001318D8A4CDEF3AF0CFEF3AF0D1EF3AF08E
:10759E00000E136E000E126E000E116E0FC009F06B
:1075AE0010C00AF0000E0C6E0A0E0B6EC8EC36F010
:1075BE009B0E0924F66E7E0E0A20F76E0800F5CF9C
:1075CE0083FF808A809880968094000E176E000E3E
:1075DE00166EF4EF3AF0164A172A1450165C155030
:1075EE001758D8A0FDEF3AF0FFEF3AF0F2EF3AF06D
:1075FE00000E046E0A0E036E0FC001F010C002F0F2
:10760E0020EC37F001C009F002C00AF0000E0C6E3B
:10761E000A0E0B6EC8EC36F09B0E0924F66E7E0E2B
:10762E000A20F76E0800F5CF83FF809A8088809637
:10763E008094000E176E000E166E28EF3BF0164A61
:10764E00172A1450165C15501758D8A031EF3BF07E
:10765E0033EF3BF026EF3BF0000E046E640E036E2C
:10766E000FC001F010C002F020EC37F001C009F09D
:10767E0002C00AF0000E0C6E0A0E0B6EC8EC36F04D
:10768E009B0E0924F66E7E0E0A20F76E0800F5CFCB
:10769E0083FF809A809880868094000E176E000E6D
:1076AE00166E5CEF3BF0164A172A1450165C1550F6
:1076BE001758D8A065EF3BF067EF3BF05AEF3BF061
:1076CE00030E046EE80E036E0FC001F010C002F040
:1076DE0020EC37F001C009F002C00AF0000E0C6E6B
:1076EE000A0E0B6EC8EC36F09B0E0924F66E7E0E5B
:1076FE000A20F76E0800F5CF83FF809A8098809657
:10770E008084000E176E000E166E90EF3BF0164A38
:10771E00172A1450165C15501758D8A099EF3BF045
:10772E009BEF3BF08EEF3BF0114A122A125009E10B
:10773E00320E115CD8A0A6EF3BF0A8EF3BF0D5EFD0
:10774E003AF00F06D8A010060F2806E11028D8A48C
:10775E00B3EF3BF0B5EF3BF0BCEF3AF0809A809878
:10776E0080968094000E816E120021EE00F010EED5
:10777E0080F0310EDBCFE3FFE806FCE220EE36F0C0
:10778E0010EEB2F00F0EDBCFE3FFE806FCE2060EC2
:10779E00C16E000E956E000E966E010E936EF80E73
:1077AE00936EFEEC35F0060EC16E000E956E000E59
:1077BE00966E010E936EF80E936E010E7BEC35F005
:1077CE00800E7BEC35F0E20E086E7F0E096E8CECAF
:1077DE0036F0C00E7BEC35F0B20E086E7F0E096EE1
:1077EE008CEC36F0070E026ED00E016E5AEC36F0AF
:1077FE000F0E0D6E7F0E0E6EF00E0F6E7E0E106E55
:10780E00F0EC37F0310E82EC37F00001F56F4CEFF3
:10781E003CF0C20E056E000E066E6A0E076E7F0EEF
:10782E00086E2CEC36F01E0E0001F76F69EF3CF07F
:10783E00C20E056E000E066E2B0E076E7F0E086EC4
:10784E002CEC36F0320E0001F76F69EF3CF0C20EF1
:10785E00056E000E066E400E076E7F0E086E2CEC47
:10786E0036F03C0E0001F76F69EF3CF0C20E056E6C
:10787E00000E066EC30E076E7F0E086E2CEC36F0F1
:10788E00280E0001F76F69EF3CF0F551326E336A46
:10789E003350000AD8B456EF3CF069EF3CF032504A
:1078AE00310AD8B410EF3CF0030AD8B41FEF3CF005
:1078BE00010AD8B42EEF3CF0070AD8B43DEF3CF0E5
:1078CE0069EF3CF0C20E0D6E000E0E6ED10E0F6EF5
:1078DE007E0E106EF0EC37F0320E82EC37F00001B7
:1078EE00F66FC20E056E000E066E160E326EFE0E90
:1078FE00336EF5510A0DF3CF34F0F4CF35F032502C
:10790E00342633503522800E3424076E000E352077
:10791E00086E2CEC36F0C20E0F6E000E106EEE0ED0
:10792E00116E7E0E126E68EC35F0C20E0F6E000EEA
:10793E00106E780E326EFE0E336E0001F651346EFE
:10794E00356AD89034363536D89034363536D890A8
:10795E00343635363250342633503522B20E342476
:10796E00116E000E3520126E68EC35F0010E7BECB8
:10797E0035F0800E7BEC35F0C20E086E000E096EEF
:10798E008CEC36F0C00E7BEC35F0A10E086E7F0E3F
:10799E00096E8CEC36F0330E82EC37F00001F46F8A
:1079AE00320EF419D8B4DEEF3CF0E0EF3CF0FFEF0E
:1079BE003BF0320EF619D8A4E7EF3CF0E9EF3CF0BD
:1079CE0010EF3DF09A0E136E990E146E990E156E01
:1079DE003F0E166EF751016E026A036A046A000EBC
:1079EE00ECEC38F001C00FF002C010F003C011F043
:1079FE0004C012F038EC3DF00FC028F010C029F092
:107A0E0011C02AF012C02BF069EC38F0285000019A
:107A1E00F76F010E7BEC35F0800E7BEC35F0F00E3F
:107A2E00086E7F0E096E8CEC36F0C00E7BEC35F0D6
:107A3E007E0E086E7F0E096E8CEC36F0F7C00FF0DE
:107A4E00106AABEC3AF0550E0D6E7F0E0E6EB10E47
:107A5E000F6E7E0E106EF0EC37F0DAEF3BF000EFAB
:107A6E0000F01250800B1B6E12501224216E11AEBC
:107A7E0043EF3DF045EF3DF046EF3DF021802150C4
:107A8E00D8B44CEF3DF04EEF3DF061EF3DF02128C4
:107A9E00D8A454EF3DF056EF3DF05EEF3DF0000EF2
:107AAE000F6E000E106E000E116E000E126E118E05
:107ABE0069EF3DF0000E0F6E000E106E000E116E8F
:107ACE00000E126E1650800B1B1A16501624206EC6
:107ADE0015AE74EF3DF076EF3DF077EF3DF0208080
:107AEE002050D8B47DEF3DF07FEF3DF092EF3DF0AA
:107AFE002028D8A485EF3DF087EF3DF08FEF3DF0C5
:107B0E00000E136E000E146E000E156E000E166E25
:107B1E00158E9AEF3DF0000E136E000E146E000ED1
:107B2E00156E000E166E2050D8B4A0EF3DF0A2EFE9
:107B3E003DF0AAEF3DF02150D8A4A8EF3DF0AAEFFA
:107B4E003DF0B4EF3DF0000E0F6E000E106E000E05
:107B5E00116E000E126E4CEF3FF015500F02F3CF68
:107B6E0026F0F4CF27F026501C6E1D6A1E6A1F6A7F
:107B7E002750226E236A246A256A14501002F3CF0E
:107B8E0026F0F4CF27F026501C26000E1D221E22B2
:107B9E001F2227502226000E232224222522135094
:107BAE001102F3CF26F0F4CF27F026501C26000E3C
:107BBE001D221E221F2227502226000E232224229F
:107BCE0025221EC01FF01DC01EF01CC01DF01C6A19
:107BDE0013501002F3CF26F0F4CF27F026501C26B8
:107BEE0027501D22000E1E22000E1F2214500F02BF
:107BFE00F3CF26F0F4CF27F026501C2627501D2257
:107C0E00000E1E22000E1F221EC01FF01DC01EF0F1
:107C1E001CC01DF01C6A13500F02F3CF26F0F4CFD8
:107C2E0027F026501C2627501D22000E1E22000E65
:107C3E001F2215501002F3CF26F0F4CF27F0265056
:107C4E00222627502322000E2422000E2522145015
:107C5E001102F3CF26F0F4CF27F02650222627501C
:107C6E002322000E2422000E252215501102F3CFDE
:107C7E0026F0F4CF27F02650176E2750186E196A8B
:107C8E001A6A19C01AF018C019F017C018F0176A3E
:107C9E001750222618502322195024221A5025221A
:107CAE001CC017F01DC018F01EC019F01FC01AF02E
:107CBE00190E67EF3EF0D8901A3219321832173279
:107CCE00E82E62EF3EF0175022261850232219504C
:107CDE0024221A5025221EC01FF01DC01EF01CC0EB
:107CEE001DF01C6A205021C017F0186A1726000ECE
:107CFE001822820E1724266EFF0E1820276E9DEF77
:107D0E003EF0D89022362336243625361FAE92EF1B
:107D1E003EF094EF3EF095EF3EF02280D8901C3668
:107D2E001D361E361F362606D8A0270624AEA2EF15
:107D3E003EF0A4EF3EF088EF3EF0000E206E1FAE38
:107D4E00ABEF3EF0ADEF3EF0D1EF3EF0FF0E1C1468
:107D5E00176EFF0E1D14186EFF0E1E14196E7F0E79
:107D6E001F141A6E1750181019101A10D8B4C2EF2B
:107D7E003EF0C4EF3EF0C8EF3EF0010E206ED1EFA4
:107D8E003EF022A0CDEF3EF0CFEF3EF0D1EF3EF031
:107D9E00C4EF3EF02050D8B4D7EF3EF0D9EF3EF00E
:107DAE00FDEF3EF0010E2226000E23222422252274
:107DBE0025A0E4EF3EF0E6EF3EF0FDEF3EF022C0F0
:107DCE0017F023C018F024C019F025C01AF01A3489
:107DDE001A3219321832173217C022F018C023F097
:107DEE0019C024F01AC025F0264A272A27BE08EF0C
:107DFE003FF0275008E12628D8A008EF3FF00AEF01
:107E0E003FF014EF3FF0000E226E000E236E800E38
:107E1E00246E7F0E256E42EF3FF027BE21EF3FF01E
:107E2E00275006E12604D8B01FEF3FF021EF3FF0B8
:107E3E002DEF3FF0000E226E000E236E000E246E0C
:107E4E00000E256E000E1B6E42EF3FF026C021F095
:107E5E00FF0E2216FF0E23167F0E2416000E251679
:107E6E0021A03CEF3FF03EEF3FF03FEF3FF0248E7E
:107E7E00D8902130256E1B50251222C00FF023C042
:107E8E0010F024C011F025C012F01200003F065B66
:107E9E004F666D7D077F6F01020408102040800140
:107EAE000204004D6169732064656C6963696F73C8
:107EBE006F20696D706F73736976656C202020205A
:107ECE002020002831293930206D6C2028322931AC
:107EDE003530206D6C2020202020202020202020D6
:107EEE00200028332920636170756363696E6F20EB
:107EFE00283429206C6174746520202020202020D5
:107F0E000028312920657870726573736F202028E0
:107F1E00322920616D65726963616E6F0054414D47
:107F2E00414E484F20444F20414D45524943414E0A
:107F3E004F0054414D414E484F20444F2043415035
:107F4E00554343494E4F0053455520434146452026
:107F5E00455354412050524F4E544F0054414D41C1
:107F6E004E484F20444F20455850524553534F00D2
:107F7E004341464520444553454A41444F20202025
:107F8E002000204F5043414F20444553454A414421
:107F9E004120002831294F4B2028322943414E439E
:107FAE00454C20004553434F4C48412053455520E6
:107FBE00434146450054414D414E484F20444F20C9
:107FCE004C415454450020205052455353494F4E76
:107FDE00452041002020205930555243304646332B
:107FEE002000505245504152414E444F204F2000E8
:017FFE000082
:020000040020DA
:08000000FFFFFFFFFFFFFFFF00
:020000040030CA
:0E000000FF021F00FF8381FF0FC00FE00F40C3
:00000001FF
